{
  "_format": "hh-sol-artifact-1",
  "contractName": "MyEpicNFT",
  "sourceName": "contracts/MyEpicNFT.sol",
  "abi": [
    {
      "inputs": [],
      "stateMutability": "nonpayable",
      "type": "constructor"
    },
    {
      "anonymous": false,
      "inputs": [
        {
          "indexed": true,
          "internalType": "address",
          "name": "owner",
          "type": "address"
        },
        {
          "indexed": true,
          "internalType": "address",
          "name": "approved",
          "type": "address"
        },
        {
          "indexed": true,
          "internalType": "uint256",
          "name": "tokenId",
          "type": "uint256"
        }
      ],
      "name": "Approval",
      "type": "event"
    },
    {
      "anonymous": false,
      "inputs": [
        {
          "indexed": true,
          "internalType": "address",
          "name": "owner",
          "type": "address"
        },
        {
          "indexed": true,
          "internalType": "address",
          "name": "operator",
          "type": "address"
        },
        {
          "indexed": false,
          "internalType": "bool",
          "name": "approved",
          "type": "bool"
        }
      ],
      "name": "ApprovalForAll",
      "type": "event"
    },
    {
      "anonymous": false,
      "inputs": [
        {
          "indexed": false,
          "internalType": "address",
          "name": "sender",
          "type": "address"
        },
        {
          "indexed": false,
          "internalType": "uint256",
          "name": "tokenId",
          "type": "uint256"
        },
        {
          "indexed": false,
          "internalType": "uint256",
          "name": "mintCount",
          "type": "uint256"
        }
      ],
      "name": "NewEpicNFTMinted",
      "type": "event"
    },
    {
      "anonymous": false,
      "inputs": [
        {
          "indexed": true,
          "internalType": "address",
          "name": "from",
          "type": "address"
        },
        {
          "indexed": true,
          "internalType": "address",
          "name": "to",
          "type": "address"
        },
        {
          "indexed": true,
          "internalType": "uint256",
          "name": "tokenId",
          "type": "uint256"
        }
      ],
      "name": "Transfer",
      "type": "event"
    },
    {
      "inputs": [
        {
          "internalType": "address",
          "name": "to",
          "type": "address"
        },
        {
          "internalType": "uint256",
          "name": "tokenId",
          "type": "uint256"
        }
      ],
      "name": "approve",
      "outputs": [],
      "stateMutability": "nonpayable",
      "type": "function"
    },
    {
      "inputs": [
        {
          "internalType": "address",
          "name": "owner",
          "type": "address"
        }
      ],
      "name": "balanceOf",
      "outputs": [
        {
          "internalType": "uint256",
          "name": "",
          "type": "uint256"
        }
      ],
      "stateMutability": "view",
      "type": "function"
    },
    {
      "inputs": [
        {
          "internalType": "uint256",
          "name": "tokenId",
          "type": "uint256"
        }
      ],
      "name": "getApproved",
      "outputs": [
        {
          "internalType": "address",
          "name": "",
          "type": "address"
        }
      ],
      "stateMutability": "view",
      "type": "function"
    },
    {
      "inputs": [
        {
          "internalType": "address",
          "name": "owner",
          "type": "address"
        },
        {
          "internalType": "address",
          "name": "operator",
          "type": "address"
        }
      ],
      "name": "isApprovedForAll",
      "outputs": [
        {
          "internalType": "bool",
          "name": "",
          "type": "bool"
        }
      ],
      "stateMutability": "view",
      "type": "function"
    },
    {
      "inputs": [],
      "name": "makeAnEpicNFT",
      "outputs": [],
      "stateMutability": "nonpayable",
      "type": "function"
    },
    {
      "inputs": [],
      "name": "name",
      "outputs": [
        {
          "internalType": "string",
          "name": "",
          "type": "string"
        }
      ],
      "stateMutability": "view",
      "type": "function"
    },
    {
      "inputs": [
        {
          "internalType": "uint256",
          "name": "tokenId",
          "type": "uint256"
        }
      ],
      "name": "ownerOf",
      "outputs": [
        {
          "internalType": "address",
          "name": "",
          "type": "address"
        }
      ],
      "stateMutability": "view",
      "type": "function"
    },
    {
      "inputs": [
        {
          "internalType": "uint256",
          "name": "tokenId",
          "type": "uint256"
        }
      ],
      "name": "pickRandomFirstColor",
      "outputs": [
        {
          "internalType": "string",
          "name": "",
          "type": "string"
        }
      ],
      "stateMutability": "view",
      "type": "function"
    },
    {
      "inputs": [
        {
          "internalType": "uint256",
          "name": "tokenId",
          "type": "uint256"
        }
      ],
      "name": "pickRandomFirstWord",
      "outputs": [
        {
          "internalType": "string",
          "name": "",
          "type": "string"
        }
      ],
      "stateMutability": "view",
      "type": "function"
    },
    {
      "inputs": [
        {
          "internalType": "uint256",
          "name": "tokenId",
          "type": "uint256"
        }
      ],
      "name": "pickRandomSecondColor",
      "outputs": [
        {
          "internalType": "string",
          "name": "",
          "type": "string"
        }
      ],
      "stateMutability": "view",
      "type": "function"
    },
    {
      "inputs": [
        {
          "internalType": "uint256",
          "name": "tokenId",
          "type": "uint256"
        }
      ],
      "name": "pickRandomSecondWord",
      "outputs": [
        {
          "internalType": "string",
          "name": "",
          "type": "string"
        }
      ],
      "stateMutability": "view",
      "type": "function"
    },
    {
      "inputs": [
        {
          "internalType": "uint256",
          "name": "tokenId",
          "type": "uint256"
        }
      ],
      "name": "pickRandomThirdWord",
      "outputs": [
        {
          "internalType": "string",
          "name": "",
          "type": "string"
        }
      ],
      "stateMutability": "view",
      "type": "function"
    },
    {
      "inputs": [
        {
          "internalType": "address",
          "name": "from",
          "type": "address"
        },
        {
          "internalType": "address",
          "name": "to",
          "type": "address"
        },
        {
          "internalType": "uint256",
          "name": "tokenId",
          "type": "uint256"
        }
      ],
      "name": "safeTransferFrom",
      "outputs": [],
      "stateMutability": "nonpayable",
      "type": "function"
    },
    {
      "inputs": [
        {
          "internalType": "address",
          "name": "from",
          "type": "address"
        },
        {
          "internalType": "address",
          "name": "to",
          "type": "address"
        },
        {
          "internalType": "uint256",
          "name": "tokenId",
          "type": "uint256"
        },
        {
          "internalType": "bytes",
          "name": "_data",
          "type": "bytes"
        }
      ],
      "name": "safeTransferFrom",
      "outputs": [],
      "stateMutability": "nonpayable",
      "type": "function"
    },
    {
      "inputs": [
        {
          "internalType": "address",
          "name": "operator",
          "type": "address"
        },
        {
          "internalType": "bool",
          "name": "approved",
          "type": "bool"
        }
      ],
      "name": "setApprovalForAll",
      "outputs": [],
      "stateMutability": "nonpayable",
      "type": "function"
    },
    {
      "inputs": [
        {
          "internalType": "bytes4",
          "name": "interfaceId",
          "type": "bytes4"
        }
      ],
      "name": "supportsInterface",
      "outputs": [
        {
          "internalType": "bool",
          "name": "",
          "type": "bool"
        }
      ],
      "stateMutability": "view",
      "type": "function"
    },
    {
      "inputs": [],
      "name": "symbol",
      "outputs": [
        {
          "internalType": "string",
          "name": "",
          "type": "string"
        }
      ],
      "stateMutability": "view",
      "type": "function"
    },
    {
      "inputs": [
        {
          "internalType": "uint256",
          "name": "tokenId",
          "type": "uint256"
        }
      ],
      "name": "tokenURI",
      "outputs": [
        {
          "internalType": "string",
          "name": "",
          "type": "string"
        }
      ],
      "stateMutability": "view",
      "type": "function"
    },
    {
      "inputs": [
        {
          "internalType": "address",
          "name": "from",
          "type": "address"
        },
        {
          "internalType": "address",
          "name": "to",
          "type": "address"
        },
        {
          "internalType": "uint256",
          "name": "tokenId",
          "type": "uint256"
        }
      ],
      "name": "transferFrom",
      "outputs": [],
      "stateMutability": "nonpayable",
      "type": "function"
    }
  ],
  "bytecode": "0x60806040526040518061010001604052806040518060400160405280600781526020017f416368696c6c650000000000000000000000000000000000000000000000000081525081526020016040518060400160405280600581526020017f436572657300000000000000000000000000000000000000000000000000000081525081526020016040518060400160405280600481526020017f436869610000000000000000000000000000000000000000000000000000000081525081526020016040518060400160405280600481526020017f44616e750000000000000000000000000000000000000000000000000000000081525081526020016040518060400160405280600781526020017f436570686575730000000000000000000000000000000000000000000000000081525081526020016040518060400160405280600481526020017f4c65746f0000000000000000000000000000000000000000000000000000000081525081526020016040518060400160405280600981526020017f5468616e6174686f73000000000000000000000000000000000000000000000081525081526020016040518060400160405280600381526020017f54797200000000000000000000000000000000000000000000000000000000008152508152506008906008620001f892919062000ed2565b506040518061010001604052806040518060400160405280600781526020017f4a756e697065720000000000000000000000000000000000000000000000000081525081526020016040518060400160405280600481526020017f426561720000000000000000000000000000000000000000000000000000000081525081526020016040518060400160405280600481526020017f5772656e0000000000000000000000000000000000000000000000000000000081525081526020016040518060400160405280600681526020017f436173736961000000000000000000000000000000000000000000000000000081525081526020016040518060400160405280600981526020017f506572656772696e65000000000000000000000000000000000000000000000081525081526020016040518060400160405280600581526020017f436564617200000000000000000000000000000000000000000000000000000081525081526020016040518060400160405280600681526020017f416361636961000000000000000000000000000000000000000000000000000081525081526020016040518060400160405280600581526020017f65617274680000000000000000000000000000000000000000000000000000008152508152506009906008620003ed92919062000ed2565b506040518061010001604052806040518060400160405280600781526020017f4d6572637572790000000000000000000000000000000000000000000000000081525081526020016040518060400160405280600581526020017f56656e757300000000000000000000000000000000000000000000000000000081525081526020016040518060400160405280600581526020017f456172746800000000000000000000000000000000000000000000000000000081525081526020016040518060400160405280600481526020017f4d6172730000000000000000000000000000000000000000000000000000000081525081526020016040518060400160405280600781526020017f4a7570697465720000000000000000000000000000000000000000000000000081525081526020016040518060400160405280600681526020017f53617475726e000000000000000000000000000000000000000000000000000081525081526020016040518060400160405280600681526020017f5572616e7573000000000000000000000000000000000000000000000000000081525081526020016040518060400160405280600781526020017f4e657074756e6500000000000000000000000000000000000000000000000000815250815250600a906008620005e292919062000ed2565b50604051806101e001604052806040518060400160405280600481526020017f50696e6b0000000000000000000000000000000000000000000000000000000081525081526020016040518060400160405280600781526020017f4372696d736f6e0000000000000000000000000000000000000000000000000081525081526020016040518060400160405280600381526020017f526564000000000000000000000000000000000000000000000000000000000081525081526020016040518060400160405280600681526020017f4d61726f6f6e000000000000000000000000000000000000000000000000000081525081526020016040518060400160405280600581526020017f42726f776e00000000000000000000000000000000000000000000000000000081525081526020016040518060400160405280600481526020017f4d6973740000000000000000000000000000000000000000000000000000000081525081526020016040518060400160405280600481526020017f526f73650000000000000000000000000000000000000000000000000000000081525081526020016040518060400160405280600681526020017f53616c6d6f6e000000000000000000000000000000000000000000000000000081525081526020016040518060400160405280600581526020017f436f72616c00000000000000000000000000000000000000000000000000000081525081526020016040518060400160405280600a81526020017f4f72616e67652d5265640000000000000000000000000000000000000000000081525081526020016040518060400160405280600981526020017f43686f636f6c617465000000000000000000000000000000000000000000000081525081526020016040518060400160405280600681526020017f4f72616e6765000000000000000000000000000000000000000000000000000081525081526020016040518060400160405280600481526020017f476f6c640000000000000000000000000000000000000000000000000000000081525081526020016040518060400160405280600381526020017f54616e000000000000000000000000000000000000000000000000000000000081525081526020016040518060400160405280600581526020017f4265696765000000000000000000000000000000000000000000000000000000815250815250600b90600f6200097492919062000f39565b50604051806101e001604052806040518060400160405280600481526020017f4c696d650000000000000000000000000000000000000000000000000000000081525081526020016040518060400160405280600581526020017f477265656e00000000000000000000000000000000000000000000000000000081525081526020016040518060400160405280600c81526020017f537072696e672d677265656e000000000000000000000000000000000000000081525081526020016040518060400160405280600a81526020017f417175616d6172696e650000000000000000000000000000000000000000000081525081526020016040518060400160405280600981526020017f54757271756f697365000000000000000000000000000000000000000000000081525081526020016040518060400160405280600581526020017f417a75726500000000000000000000000000000000000000000000000000000081525081526020016040518060400160405280600481526020017f417175610000000000000000000000000000000000000000000000000000000081525081526020016040518060400160405280600481526020017f5465616c0000000000000000000000000000000000000000000000000000000081525081526020016040518060400160405280600881526020017f4c6176656e64657200000000000000000000000000000000000000000000000081525081526020016040518060400160405280600481526020017f426c75650000000000000000000000000000000000000000000000000000000081525081526020016040518060400160405280600481526020017f4e6176790000000000000000000000000000000000000000000000000000000081525081526020016040518060400160405280600b81526020017f426c75652d56696f6c657400000000000000000000000000000000000000000081525081526020016040518060400160405280600681526020017f496e6469676f000000000000000000000000000000000000000000000000000081525081526020016040518060400160405280600581526020017f576869746500000000000000000000000000000000000000000000000000000081525081526020016040518060400160405280600581526020017f426c61636b000000000000000000000000000000000000000000000000000000815250815250600c90600f62000d0692919062000f39565b5034801562000d1457600080fd5b506040518060400160405280600981526020017f5371756172654e465400000000000000000000000000000000000000000000008152506040518060400160405280600681526020017f5351554152450000000000000000000000000000000000000000000000000000815250816000908051906020019062000d9992919062000fa0565b50806001908051906020019062000db292919062000fa0565b50505062000e006040518060400160405280601e81526020017f54686973206973206d79204e465420636f6e74726163742e20576f616821000081525062000e0660201b620015431760201c565b620011eb565b62000ea68160405160240162000e1d9190620010ff565b6040516020818303038152906040527f41304fac000000000000000000000000000000000000000000000000000000007bffffffffffffffffffffffffffffffffffffffffffffffffffffffff19166020820180517bffffffffffffffffffffffffffffffffffffffffffffffffffffffff838183161783525050505062000ea960201b60201c565b50565b60008151905060006a636f6e736f6c652e6c6f679050602083016000808483855afa5050505050565b82805482825590600052602060002090810192821562000f26579160200282015b8281111562000f2557825182908051906020019062000f1492919062000fa0565b509160200191906001019062000ef3565b5b50905062000f35919062001031565b5090565b82805482825590600052602060002090810192821562000f8d579160200282015b8281111562000f8c57825182908051906020019062000f7b92919062000fa0565b509160200191906001019062000f5a565b5b50905062000f9c919062001031565b5090565b82805462000fae9062001175565b90600052602060002090601f01602090048101928262000fd257600085556200101e565b82601f1062000fed57805160ff19168380011785556200101e565b828001600101855582156200101e579182015b828111156200101d57825182559160200191906001019062001000565b5b5090506200102d919062001059565b5090565b5b808211156200105557600081816200104b919062001078565b5060010162001032565b5090565b5b80821115620010745760008160009055506001016200105a565b5090565b508054620010869062001175565b6000825580601f106200109a5750620010bb565b601f016020900490600052602060002090810190620010ba919062001059565b5b50565b6000620010cb8262001123565b620010d781856200112e565b9350620010e98185602086016200113f565b620010f481620011da565b840191505092915050565b600060208201905081810360008301526200111b8184620010be565b905092915050565b600081519050919050565b600082825260208201905092915050565b60005b838110156200115f57808201518184015260208101905062001142565b838111156200116f576000848401525b50505050565b600060028204905060018216806200118e57607f821691505b60208210811415620011a557620011a4620011ab565b5b50919050565b7f4e487b7100000000000000000000000000000000000000000000000000000000600052602260045260246000fd5b6000601f19601f8301169050919050565b613f5e80620011fb6000396000f3fe608060405234801561001057600080fd5b50600436106101215760003560e01c8063913e41a3116100ad578063c575757a11610071578063c575757a1461033e578063c87b56dd1461036e578063dd8ca3ad1461039e578063de9d132f146103ce578063e985e9c5146103d857610121565b8063913e41a31461028857806395d89b41146102b8578063a22cb465146102d6578063b187301f146102f2578063b88d4fde1461032257610121565b806323b872dd116100f457806323b872dd146101c05780632de38d68146101dc57806342842e0e1461020c5780636352211e1461022857806370a082311461025857610121565b806301ffc9a71461012657806306fdde0314610156578063081812fc14610174578063095ea7b3146101a4575b600080fd5b610140600480360381019061013b9190612808565b610408565b60405161014d91906137c9565b60405180910390f35b61015e6104ea565b60405161016b91906137e4565b60405180910390f35b61018e6004803603810190610189919061285a565b61057c565b60405161019b919061372b565b60405180910390f35b6101be60048036038101906101b991906127cc565b610601565b005b6101da60048036038101906101d591906126c6565b610719565b005b6101f660048036038101906101f1919061285a565b610779565b60405161020391906137e4565b60405180910390f35b610226600480360381019061022191906126c6565b610897565b005b610242600480360381019061023d919061285a565b6108b7565b60405161024f919061372b565b60405180910390f35b610272600480360381019061026d9190612661565b610969565b60405161027f9190613a64565b60405180910390f35b6102a2600480360381019061029d919061285a565b610a21565b6040516102af91906137e4565b60405180910390f35b6102c0610b3f565b6040516102cd91906137e4565b60405180910390f35b6102f060048036038101906102eb9190612790565b610bd1565b005b61030c6004803603810190610307919061285a565b610d52565b60405161031991906137e4565b60405180910390f35b61033c60048036038101906103379190612715565b610e70565b005b6103586004803603810190610353919061285a565b610ed2565b60405161036591906137e4565b60405180910390f35b6103886004803603810190610383919061285a565b610ff0565b60405161039591906137e4565b60405180910390f35b6103b860048036038101906103b3919061285a565b611142565b6040516103c591906137e4565b60405180910390f35b6103d6611260565b005b6103f260048036038101906103ed919061268a565b6114af565b6040516103ff91906137c9565b60405180910390f35b60007f80ac58cd000000000000000000000000000000000000000000000000000000007bffffffffffffffffffffffffffffffffffffffffffffffffffffffff1916827bffffffffffffffffffffffffffffffffffffffffffffffffffffffff191614806104d357507f5b5e139f000000000000000000000000000000000000000000000000000000007bffffffffffffffffffffffffffffffffffffffffffffffffffffffff1916827bffffffffffffffffffffffffffffffffffffffffffffffffffffffff1916145b806104e357506104e2826115dc565b5b9050919050565b6060600080546104f990613cee565b80601f016020809104026020016040519081016040528092919081815260200182805461052590613cee565b80156105725780601f1061054757610100808354040283529160200191610572565b820191906000526020600020905b81548152906001019060200180831161055557829003601f168201915b5050505050905090565b600061058782611646565b6105c6576040517f08c379a00000000000000000000000000000000000000000000000000000000081526004016105bd906139a4565b60405180910390fd5b6004600083815260200190815260200160002060009054906101000a900473ffffffffffffffffffffffffffffffffffffffff169050919050565b600061060c826108b7565b90508073ffffffffffffffffffffffffffffffffffffffff168373ffffffffffffffffffffffffffffffffffffffff16141561067d576040517f08c379a000000000000000000000000000000000000000000000000000000000815260040161067490613a04565b60405180910390fd5b8073ffffffffffffffffffffffffffffffffffffffff1661069c6116b2565b73ffffffffffffffffffffffffffffffffffffffff1614806106cb57506106ca816106c56116b2565b6114af565b5b61070a576040517f08c379a0000000000000000000000000000000000000000000000000000000008152600401610701906138e4565b60405180910390fd5b61071483836116ba565b505050565b61072a6107246116b2565b82611773565b610769576040517f08c379a000000000000000000000000000000000000000000000000000000000815260040161076090613a24565b60405180910390fd5b610774838383611851565b505050565b606060006107ad61078984611aad565b6040516020016107999190613680565b604051602081830303815290604052611c5a565b9050600880549050816107c09190613d69565b9050600881815481106107fc577f4e487b7100000000000000000000000000000000000000000000000000000000600052603260045260246000fd5b90600052602060002001805461081190613cee565b80601f016020809104026020016040519081016040528092919081815260200182805461083d90613cee565b801561088a5780601f1061085f5761010080835404028352916020019161088a565b820191906000526020600020905b81548152906001019060200180831161086d57829003601f168201915b5050505050915050919050565b6108b283838360405180602001604052806000815250610e70565b505050565b6000806002600084815260200190815260200160002060009054906101000a900473ffffffffffffffffffffffffffffffffffffffff169050600073ffffffffffffffffffffffffffffffffffffffff168173ffffffffffffffffffffffffffffffffffffffff161415610960576040517f08c379a000000000000000000000000000000000000000000000000000000000815260040161095790613924565b60405180910390fd5b80915050919050565b60008073ffffffffffffffffffffffffffffffffffffffff168273ffffffffffffffffffffffffffffffffffffffff1614156109da576040517f08c379a00000000000000000000000000000000000000000000000000000000081526004016109d190613904565b60405180910390fd5b600360008373ffffffffffffffffffffffffffffffffffffffff1673ffffffffffffffffffffffffffffffffffffffff168152602001908152602001600020549050919050565b60606000610a55610a3184611aad565b604051602001610a4191906135d5565b604051602081830303815290604052611c5a565b9050600b8054905081610a689190613d69565b9050600b8181548110610aa4577f4e487b7100000000000000000000000000000000000000000000000000000000600052603260045260246000fd5b906000526020600020018054610ab990613cee565b80601f0160208091040260200160405190810160405280929190818152602001828054610ae590613cee565b8015610b325780601f10610b0757610100808354040283529160200191610b32565b820191906000526020600020905b815481529060010190602001808311610b1557829003601f168201915b5050505050915050919050565b606060018054610b4e90613cee565b80601f0160208091040260200160405190810160405280929190818152602001828054610b7a90613cee565b8015610bc75780601f10610b9c57610100808354040283529160200191610bc7565b820191906000526020600020905b815481529060010190602001808311610baa57829003601f168201915b5050505050905090565b610bd96116b2565b73ffffffffffffffffffffffffffffffffffffffff168273ffffffffffffffffffffffffffffffffffffffff161415610c47576040517f08c379a0000000000000000000000000000000000000000000000000000000008152600401610c3e906138a4565b60405180910390fd5b8060056000610c546116b2565b73ffffffffffffffffffffffffffffffffffffffff1673ffffffffffffffffffffffffffffffffffffffff16815260200190815260200160002060008473ffffffffffffffffffffffffffffffffffffffff1673ffffffffffffffffffffffffffffffffffffffff16815260200190815260200160002060006101000a81548160ff0219169083151502179055508173ffffffffffffffffffffffffffffffffffffffff16610d016116b2565b73ffffffffffffffffffffffffffffffffffffffff167f17307eab39ab6107e8899845ad3d59bd9653f200f220920489ca2b5937696c3183604051610d4691906137c9565b60405180910390a35050565b60606000610d86610d6284611aad565b604051602001610d729190613619565b604051602081830303815290604052611c5a565b905060098054905081610d999190613d69565b905060098181548110610dd5577f4e487b7100000000000000000000000000000000000000000000000000000000600052603260045260246000fd5b906000526020600020018054610dea90613cee565b80601f0160208091040260200160405190810160405280929190818152602001828054610e1690613cee565b8015610e635780601f10610e3857610100808354040283529160200191610e63565b820191906000526020600020905b815481529060010190602001808311610e4657829003601f168201915b5050505050915050919050565b610e81610e7b6116b2565b83611773565b610ec0576040517f08c379a0000000000000000000000000000000000000000000000000000000008152600401610eb790613a24565b60405180910390fd5b610ecc84848484611c8d565b50505050565b60606000610f06610ee284611aad565b604051602001610ef291906135f7565b604051602081830303815290604052611c5a565b9050600a8054905081610f199190613d69565b9050600a8181548110610f55577f4e487b7100000000000000000000000000000000000000000000000000000000600052603260045260246000fd5b906000526020600020018054610f6a90613cee565b80601f0160208091040260200160405190810160405280929190818152602001828054610f9690613cee565b8015610fe35780601f10610fb857610100808354040283529160200191610fe3565b820191906000526020600020905b815481529060010190602001808311610fc657829003601f168201915b5050505050915050919050565b6060610ffb82611646565b61103a576040517f08c379a000000000000000000000000000000000000000000000000000000000815260040161103190613984565b60405180910390fd5b600060066000848152602001908152602001600020805461105a90613cee565b80601f016020809104026020016040519081016040528092919081815260200182805461108690613cee565b80156110d35780601f106110a8576101008083540402835291602001916110d3565b820191906000526020600020905b8154815290600101906020018083116110b657829003601f168201915b5050505050905060006110e4611ce9565b90506000815114156110fa57819250505061113d565b60008251111561112f57808260405160200161111792919061355e565b6040516020818303038152906040529250505061113d565b61113884611d00565b925050505b919050565b6060600061117661115284611aad565b60405160200161116291906136a2565b604051602081830303815290604052611c5a565b9050600c80549050816111899190613d69565b9050600c81815481106111c5577f4e487b7100000000000000000000000000000000000000000000000000000000600052603260045260246000fd5b9060005260206000200180546111da90613cee565b80601f016020809104026020016040519081016040528092919081815260200182805461120690613cee565b80156112535780601f1061122857610100808354040283529160200191611253565b820191906000526020600020905b81548152906001019060200180831161123657829003601f168201915b5050505050915050919050565b600061126c6007611da7565b905060328111156112b2576040517f08c379a00000000000000000000000000000000000000000000000000000000081526004016112a990613a44565b60405180910390fd5b60006112bd82610779565b905060006112ca83610d52565b905060006112d784610ed2565b905060008383836040516020016112f093929190613582565b6040516020818303038152906040529050600061130c86610a21565b9050600061131987611142565b905060006113278383611db5565b9050600061135d8561133884611de7565b60405160200161134992919061363b565b604051602081830303815290604052611de7565b905060008160405160200161137291906136c4565b60405160208183030381529060405290506113c16040518060400160405280601581526020017f0a2d2d2d2d2d2d2d2d2d2d2d2d2d2d2d2d2d2d2d2d0000000000000000000000815250611543565b6113e9816040516020016113d591906135b3565b604051602081830303815290604052611543565b6114276040518060400160405280601581526020017f2d2d2d2d2d2d2d2d2d2d2d2d2d2d2d2d2d2d2d2d0a0000000000000000000000815250611543565b611431338b611fa5565b61143b8a82611fc3565b6114456007612037565b611468604051806060016040528060258152602001613ec4602591398b3361204d565b7f9e9e101732de0887d722bd72c01c5439edc857c9c2c763953d67e66de12441d3338b8c60405161149b93929190613792565b60405180910390a150505050505050505050565b6000600560008473ffffffffffffffffffffffffffffffffffffffff1673ffffffffffffffffffffffffffffffffffffffff16815260200190815260200160002060008373ffffffffffffffffffffffffffffffffffffffff1673ffffffffffffffffffffffffffffffffffffffff16815260200190815260200160002060009054906101000a900460ff16905092915050565b6115d98160405160240161155791906137e4565b6040516020818303038152906040527f41304fac000000000000000000000000000000000000000000000000000000007bffffffffffffffffffffffffffffffffffffffffffffffffffffffff19166020820180517bffffffffffffffffffffffffffffffffffffffffffffffffffffffff83818316178352505050506120ec565b50565b60007f01ffc9a7000000000000000000000000000000000000000000000000000000007bffffffffffffffffffffffffffffffffffffffffffffffffffffffff1916827bffffffffffffffffffffffffffffffffffffffffffffffffffffffff1916149050919050565b60008073ffffffffffffffffffffffffffffffffffffffff166002600084815260200190815260200160002060009054906101000a900473ffffffffffffffffffffffffffffffffffffffff1673ffffffffffffffffffffffffffffffffffffffff1614159050919050565b600033905090565b816004600083815260200190815260200160002060006101000a81548173ffffffffffffffffffffffffffffffffffffffff021916908373ffffffffffffffffffffffffffffffffffffffff160217905550808273ffffffffffffffffffffffffffffffffffffffff1661172d836108b7565b73ffffffffffffffffffffffffffffffffffffffff167f8c5be1e5ebec7d5bd14f71427d1e84f3dd0314c0f7b2291e5b200ac8c7c3b92560405160405180910390a45050565b600061177e82611646565b6117bd576040517f08c379a00000000000000000000000000000000000000000000000000000000081526004016117b4906138c4565b60405180910390fd5b60006117c8836108b7565b90508073ffffffffffffffffffffffffffffffffffffffff168473ffffffffffffffffffffffffffffffffffffffff16148061183757508373ffffffffffffffffffffffffffffffffffffffff1661181f8461057c565b73ffffffffffffffffffffffffffffffffffffffff16145b80611848575061184781856114af565b5b91505092915050565b8273ffffffffffffffffffffffffffffffffffffffff16611871826108b7565b73ffffffffffffffffffffffffffffffffffffffff16146118c7576040517f08c379a00000000000000000000000000000000000000000000000000000000081526004016118be906139c4565b60405180910390fd5b600073ffffffffffffffffffffffffffffffffffffffff168273ffffffffffffffffffffffffffffffffffffffff161415611937576040517f08c379a000000000000000000000000000000000000000000000000000000000815260040161192e90613884565b60405180910390fd5b611942838383612115565b61194d6000826116ba565b6001600360008573ffffffffffffffffffffffffffffffffffffffff1673ffffffffffffffffffffffffffffffffffffffff168152602001908152602001600020600082825461199d9190613c04565b925050819055506001600360008473ffffffffffffffffffffffffffffffffffffffff1673ffffffffffffffffffffffffffffffffffffffff16815260200190815260200160002060008282546119f49190613b23565b92505081905550816002600083815260200190815260200160002060006101000a81548173ffffffffffffffffffffffffffffffffffffffff021916908373ffffffffffffffffffffffffffffffffffffffff160217905550808273ffffffffffffffffffffffffffffffffffffffff168473ffffffffffffffffffffffffffffffffffffffff167fddf252ad1be2c89b69c2b068fc378daa952ba7f163c4a11628f55a4df523b3ef60405160405180910390a4505050565b60606000821415611af5576040518060400160405280600181526020017f30000000000000000000000000000000000000000000000000000000000000008152509050611c55565b600082905060005b60008214611b27578080611b1090613d20565b915050600a82611b209190613b79565b9150611afd565b60008167ffffffffffffffff811115611b69577f4e487b7100000000000000000000000000000000000000000000000000000000600052604160045260246000fd5b6040519080825280601f01601f191660200182016040528015611b9b5781602001600182028036833780820191505090505b5090505b60008514611c4e57600182611bb49190613c04565b9150600a85611bc39190613d69565b6030611bcf9190613b23565b60f81b818381518110611c0b577f4e487b7100000000000000000000000000000000000000000000000000000000600052603260045260246000fd5b60200101907effffffffffffffffffffffffffffffffffffffffffffffffffffffffffffff1916908160001a905350600a85611c479190613b79565b9450611b9f565b8093505050505b919050565b600081604051602001611c6d9190613547565b6040516020818303038152906040528051906020012060001c9050919050565b611c98848484611851565b611ca48484848461211a565b611ce3576040517f08c379a0000000000000000000000000000000000000000000000000000000008152600401611cda90613844565b60405180910390fd5b50505050565b606060405180602001604052806000815250905090565b6060611d0b82611646565b611d4a576040517f08c379a0000000000000000000000000000000000000000000000000000000008152600401611d41906139e4565b60405180910390fd5b6000611d54611ce9565b90506000815111611d745760405180602001604052806000815250611d9f565b80611d7e84611aad565b604051602001611d8f92919061355e565b6040516020818303038152906040525b915050919050565b600081600001549050919050565b606060008383604051602001611dcc9291906136e6565b60405160208183030381529060405290508091505092915050565b60606000825190506000811415611e105760405180602001604052806000815250915050611fa0565b60006003600283611e219190613b23565b611e2b9190613b79565b6004611e379190613baa565b90506000602082611e489190613b23565b67ffffffffffffffff811115611e87577f4e487b7100000000000000000000000000000000000000000000000000000000600052604160045260246000fd5b6040519080825280601f01601f191660200182016040528015611eb95781602001600182028036833780820191505090505b5090506000604051806060016040528060408152602001613ee9604091399050600181016020830160005b86811015611f5d5760038101905062ffffff818a015116603f8160121c168401518060081b905060ff603f83600c1c1686015116810190508060081b905060ff603f8360061c1686015116810190508060081b905060ff603f831686015116810190508060e01b90508084526004840193505050611ee4565b506003860660018114611f775760028114611f8757611f92565b613d3d60f01b6002830352611f92565b603d60f81b60018303525b508484525050819450505050505b919050565b611fbf8282604051806020016040528060008152506122b1565b5050565b611fcc82611646565b61200b576040517f08c379a000000000000000000000000000000000000000000000000000000000815260040161200290613944565b60405180910390fd5b806006600084815260200190815260200160002090805190602001906120329291906124ed565b505050565b6001816000016000828254019250508190555050565b6120e783838360405160240161206593929190613806565b6040516020818303038152906040527fe3849f79000000000000000000000000000000000000000000000000000000007bffffffffffffffffffffffffffffffffffffffffffffffffffffffff19166020820180517bffffffffffffffffffffffffffffffffffffffffffffffffffffffff83818316178352505050506120ec565b505050565b60008151905060006a636f6e736f6c652e6c6f679050602083016000808483855afa5050505050565b505050565b600061213b8473ffffffffffffffffffffffffffffffffffffffff1661230c565b156122a4578373ffffffffffffffffffffffffffffffffffffffff1663150b7a026121646116b2565b8786866040518563ffffffff1660e01b81526004016121869493929190613746565b602060405180830381600087803b1580156121a057600080fd5b505af19250505080156121d157506040513d601f19601f820116820180604052508101906121ce9190612831565b60015b612254573d8060008114612201576040519150601f19603f3d011682016040523d82523d6000602084013e612206565b606091505b5060008151141561224c576040517f08c379a000000000000000000000000000000000000000000000000000000000815260040161224390613844565b60405180910390fd5b805181602001fd5b63150b7a0260e01b7bffffffffffffffffffffffffffffffffffffffffffffffffffffffff1916817bffffffffffffffffffffffffffffffffffffffffffffffffffffffff1916149150506122a9565b600190505b949350505050565b6122bb838361231f565b6122c8600084848461211a565b612307576040517f08c379a00000000000000000000000000000000000000000000000000000000081526004016122fe90613844565b60405180910390fd5b505050565b600080823b905060008111915050919050565b600073ffffffffffffffffffffffffffffffffffffffff168273ffffffffffffffffffffffffffffffffffffffff16141561238f576040517f08c379a000000000000000000000000000000000000000000000000000000000815260040161238690613964565b60405180910390fd5b61239881611646565b156123d8576040517f08c379a00000000000000000000000000000000000000000000000000000000081526004016123cf90613864565b60405180910390fd5b6123e460008383612115565b6001600360008473ffffffffffffffffffffffffffffffffffffffff1673ffffffffffffffffffffffffffffffffffffffff16815260200190815260200160002060008282546124349190613b23565b92505081905550816002600083815260200190815260200160002060006101000a81548173ffffffffffffffffffffffffffffffffffffffff021916908373ffffffffffffffffffffffffffffffffffffffff160217905550808273ffffffffffffffffffffffffffffffffffffffff16600073ffffffffffffffffffffffffffffffffffffffff167fddf252ad1be2c89b69c2b068fc378daa952ba7f163c4a11628f55a4df523b3ef60405160405180910390a45050565b8280546124f990613cee565b90600052602060002090601f01602090048101928261251b5760008555612562565b82601f1061253457805160ff1916838001178555612562565b82800160010185558215612562579182015b82811115612561578251825591602001919060010190612546565b5b50905061256f9190612573565b5090565b5b8082111561258c576000816000905550600101612574565b5090565b60006125a361259e84613ab0565b613a7f565b9050828152602081018484840111156125bb57600080fd5b6125c6848285613cac565b509392505050565b6000813590506125dd81613e67565b92915050565b6000813590506125f281613e7e565b92915050565b60008135905061260781613e95565b92915050565b60008151905061261c81613e95565b92915050565b600082601f83011261263357600080fd5b8135612643848260208601612590565b91505092915050565b60008135905061265b81613eac565b92915050565b60006020828403121561267357600080fd5b6000612681848285016125ce565b91505092915050565b6000806040838503121561269d57600080fd5b60006126ab858286016125ce565b92505060206126bc858286016125ce565b9150509250929050565b6000806000606084860312156126db57600080fd5b60006126e9868287016125ce565b93505060206126fa868287016125ce565b925050604061270b8682870161264c565b9150509250925092565b6000806000806080858703121561272b57600080fd5b6000612739878288016125ce565b945050602061274a878288016125ce565b935050604061275b8782880161264c565b925050606085013567ffffffffffffffff81111561277857600080fd5b61278487828801612622565b91505092959194509250565b600080604083850312156127a357600080fd5b60006127b1858286016125ce565b92505060206127c2858286016125e3565b9150509250929050565b600080604083850312156127df57600080fd5b60006127ed858286016125ce565b92505060206127fe8582860161264c565b9150509250929050565b60006020828403121561281a57600080fd5b6000612828848285016125f8565b91505092915050565b60006020828403121561284357600080fd5b60006128518482850161260d565b91505092915050565b60006020828403121561286c57600080fd5b600061287a8482850161264c565b91505092915050565b61288c81613c38565b82525050565b61289b81613c4a565b82525050565b60006128ac82613ae0565b6128b68185613af6565b93506128c6818560208601613cbb565b6128cf81613e56565b840191505092915050565b60006128e582613aeb565b6128ef8185613b07565b93506128ff818560208601613cbb565b61290881613e56565b840191505092915050565b600061291e82613aeb565b6129288185613b18565b9350612938818560208601613cbb565b80840191505092915050565b6000612951602583613b18565b91507f68747470733a2f2f6e6674707265766965772e30786465762e636f6465732f3f60008301527f636f64653d0000000000000000000000000000000000000000000000000000006020830152602582019050919050565b60006129b7603283613b07565b91507f4552433732313a207472616e7366657220746f206e6f6e20455243373231526560008301527f63656976657220696d706c656d656e74657200000000000000000000000000006020830152604082019050919050565b6000612a1d600b83613b18565b91507f46495253545f434f4c4f520000000000000000000000000000000000000000006000830152600b82019050919050565b6000612a5d601c83613b07565b91507f4552433732313a20746f6b656e20616c7265616479206d696e746564000000006000830152602082019050919050565b6000612a9d600a83613b18565b91507f54484952445f574f5244000000000000000000000000000000000000000000006000830152600a82019050919050565b6000612add602383613b18565b91507f272f3e3c73746f70206f66667365743d2731303025272073746f702d636f6c6f60008301527f723d2700000000000000000000000000000000000000000000000000000000006020830152602382019050919050565b6000612b43602483613b07565b91507f4552433732313a207472616e7366657220746f20746865207a65726f2061646460008301527f72657373000000000000000000000000000000000000000000000000000000006020830152604082019050919050565b6000612ba9601983613b07565b91507f4552433732313a20617070726f766520746f2063616c6c6572000000000000006000830152602082019050919050565b6000612be9606383613b18565b91507f222c20226465736372697074696f6e223a20224120686967686c79206163636c60008301527f61696d656420636f6c6c656374696f6e206f6620737175617265732e222c202260208301527f696d616765223a2022646174613a696d6167652f7376672b786d6c3b6261736560408301527f36342c00000000000000000000000000000000000000000000000000000000006060830152606382019050919050565b6000612c9b600b83613b18565b91507f5345434f4e445f574f52440000000000000000000000000000000000000000006000830152600b82019050919050565b6000612cdb602c83613b07565b91507f4552433732313a206f70657261746f7220717565727920666f72206e6f6e657860008301527f697374656e7420746f6b656e00000000000000000000000000000000000000006020830152604082019050919050565b6000612d41603883613b07565b91507f4552433732313a20617070726f76652063616c6c6572206973206e6f74206f7760008301527f6e6572206e6f7220617070726f76656420666f7220616c6c00000000000000006020830152604082019050919050565b6000612da7602a83613b07565b91507f4552433732313a2062616c616e636520717565727920666f7220746865207a6560008301527f726f2061646472657373000000000000000000000000000000000000000000006020830152604082019050919050565b6000612e0d602983613b07565b91507f4552433732313a206f776e657220717565727920666f72206e6f6e657869737460008301527f656e7420746f6b656e00000000000000000000000000000000000000000000006020830152604082019050919050565b6000612e73602e83613b07565b91507f45524337323155524953746f726167653a2055524920736574206f66206e6f6e60008301527f6578697374656e7420746f6b656e0000000000000000000000000000000000006020830152604082019050919050565b6000612ed9600283613b18565b91507f227d0000000000000000000000000000000000000000000000000000000000006000830152600282019050919050565b6000612f19602083613b07565b91507f4552433732313a206d696e7420746f20746865207a65726f20616464726573736000830152602082019050919050565b6000612f59603183613b07565b91507f45524337323155524953746f726167653a2055524920717565727920666f722060008301527f6e6f6e6578697374656e7420746f6b656e0000000000000000000000000000006020830152604082019050919050565b6000612fbf602c83613b07565b91507f4552433732313a20617070726f76656420717565727920666f72206e6f6e657860008301527f697374656e7420746f6b656e00000000000000000000000000000000000000006020830152604082019050919050565b6000613025602983613b07565b91507f4552433732313a207472616e73666572206f6620746f6b656e2074686174206960008301527f73206e6f74206f776e00000000000000000000000000000000000000000000006020830152604082019050919050565b600061308b602f83613b07565b91507f4552433732314d657461646174613a2055524920717565727920666f72206e6f60008301527f6e6578697374656e7420746f6b656e00000000000000000000000000000000006020830152604082019050919050565b60006130f1600a83613b18565b91507f7b226e616d65223a2022000000000000000000000000000000000000000000006000830152600a82019050919050565b6000613131602183613b07565b91507f4552433732313a20617070726f76616c20746f2063757272656e74206f776e6560008301527f72000000000000000000000000000000000000000000000000000000000000006020830152604082019050919050565b6000613197600a83613b18565b91507f46495253545f574f5244000000000000000000000000000000000000000000006000830152600a82019050919050565b60006131d7600c83613b18565b91507f5345434f4e445f434f4c4f5200000000000000000000000000000000000000006000830152600c82019050919050565b6000613217601d83613b18565b91507f646174613a6170706c69636174696f6e2f6a736f6e3b6261736536342c0000006000830152601d82019050919050565b6000613257603183613b07565b91507f4552433732313a207472616e736665722063616c6c6572206973206e6f74206f60008301527f776e6572206e6f7220617070726f7665640000000000000000000000000000006020830152604082019050919050565b60006132bd60b683613b18565b91507f272f3e3c2f72616469616c4772616469656e743e3c2f646566733e3c7265637460008301527f2077696474683d273130302527206865696768743d2731303025272066696c6c60208301527f3d2775726c28234772616469656e745265706561742927203e3c616e696d617460408301527f65206174747269627574654e616d653d277278272076616c7565733d27303b3560608301527f3b3027206475723d273130732720726570656174436f756e743d27696e64656660808301527f696e69746527202f3e3c2f726563743e3c2f7376673e0000000000000000000060a083015260b682019050919050565b60006133bb601183613b07565b91507f4d617820636f756e7420726561636865640000000000000000000000000000006000830152602082019050919050565b60006133fb60ef83613b18565b91507f3c73766720786d6c6e733d27687474703a2f2f7777772e77332e6f72672f323060008301527f30302f73766727207072657365727665417370656374526174696f3d27784d6960208301527f6e594d696e206d656574272076696577426f783d27302030203335302033353060408301527f273e3c646566733e3c72616469616c4772616469656e742069643d274772616460608301527f69656e74526570656174272063783d27302e35272063793d27302e352720723d60808301527f27302e34272066783d27302e3735272066793d27302e3735272073707265616460a08301527f4d6574686f643d27726570656174273e203c73746f70206f66667365743d273060c08301527f25272073746f702d636f6c6f723d27000000000000000000000000000000000060e083015260ef82019050919050565b61354181613ca2565b82525050565b60006135538284612913565b915081905092915050565b600061356a8285612913565b91506135768284612913565b91508190509392505050565b600061358e8286612913565b915061359a8285612913565b91506135a68284612913565b9150819050949350505050565b60006135be82612944565b91506135ca8284612913565b915081905092915050565b60006135e082612a10565b91506135ec8284612913565b915081905092915050565b600061360282612a90565b915061360e8284612913565b915081905092915050565b600061362482612c8e565b91506136308284612913565b915081905092915050565b6000613646826130e4565b91506136528285612913565b915061365d82612bdc565b91506136698284612913565b915061367482612ecc565b91508190509392505050565b600061368b8261318a565b91506136978284612913565b915081905092915050565b60006136ad826131ca565b91506136b98284612913565b915081905092915050565b60006136cf8261320a565b91506136db8284612913565b915081905092915050565b60006136f1826133ee565b91506136fd8285612913565b915061370882612ad0565b91506137148284612913565b915061371f826132b0565b91508190509392505050565b60006020820190506137406000830184612883565b92915050565b600060808201905061375b6000830187612883565b6137686020830186612883565b6137756040830185613538565b818103606083015261378781846128a1565b905095945050505050565b60006060820190506137a76000830186612883565b6137b46020830185613538565b6137c16040830184613538565b949350505050565b60006020820190506137de6000830184612892565b92915050565b600060208201905081810360008301526137fe81846128da565b905092915050565b6000606082019050818103600083015261382081866128da565b905061382f6020830185613538565b61383c6040830184612883565b949350505050565b6000602082019050818103600083015261385d816129aa565b9050919050565b6000602082019050818103600083015261387d81612a50565b9050919050565b6000602082019050818103600083015261389d81612b36565b9050919050565b600060208201905081810360008301526138bd81612b9c565b9050919050565b600060208201905081810360008301526138dd81612cce565b9050919050565b600060208201905081810360008301526138fd81612d34565b9050919050565b6000602082019050818103600083015261391d81612d9a565b9050919050565b6000602082019050818103600083015261393d81612e00565b9050919050565b6000602082019050818103600083015261395d81612e66565b9050919050565b6000602082019050818103600083015261397d81612f0c565b9050919050565b6000602082019050818103600083015261399d81612f4c565b9050919050565b600060208201905081810360008301526139bd81612fb2565b9050919050565b600060208201905081810360008301526139dd81613018565b9050919050565b600060208201905081810360008301526139fd8161307e565b9050919050565b60006020820190508181036000830152613a1d81613124565b9050919050565b60006020820190508181036000830152613a3d8161324a565b9050919050565b60006020820190508181036000830152613a5d816133ae565b9050919050565b6000602082019050613a796000830184613538565b92915050565b6000604051905081810181811067ffffffffffffffff82111715613aa657613aa5613e27565b5b8060405250919050565b600067ffffffffffffffff821115613acb57613aca613e27565b5b601f19601f8301169050602081019050919050565b600081519050919050565b600081519050919050565b600082825260208201905092915050565b600082825260208201905092915050565b600081905092915050565b6000613b2e82613ca2565b9150613b3983613ca2565b9250827fffffffffffffffffffffffffffffffffffffffffffffffffffffffffffffffff03821115613b6e57613b6d613d9a565b5b828201905092915050565b6000613b8482613ca2565b9150613b8f83613ca2565b925082613b9f57613b9e613dc9565b5b828204905092915050565b6000613bb582613ca2565b9150613bc083613ca2565b9250817fffffffffffffffffffffffffffffffffffffffffffffffffffffffffffffffff0483118215151615613bf957613bf8613d9a565b5b828202905092915050565b6000613c0f82613ca2565b9150613c1a83613ca2565b925082821015613c2d57613c2c613d9a565b5b828203905092915050565b6000613c4382613c82565b9050919050565b60008115159050919050565b60007fffffffff0000000000000000000000000000000000000000000000000000000082169050919050565b600073ffffffffffffffffffffffffffffffffffffffff82169050919050565b6000819050919050565b82818337600083830152505050565b60005b83811015613cd9578082015181840152602081019050613cbe565b83811115613ce8576000848401525b50505050565b60006002820490506001821680613d0657607f821691505b60208210811415613d1a57613d19613df8565b5b50919050565b6000613d2b82613ca2565b91507fffffffffffffffffffffffffffffffffffffffffffffffffffffffffffffffff821415613d5e57613d5d613d9a565b5b600182019050919050565b6000613d7482613ca2565b9150613d7f83613ca2565b925082613d8f57613d8e613dc9565b5b828206905092915050565b7f4e487b7100000000000000000000000000000000000000000000000000000000600052601160045260246000fd5b7f4e487b7100000000000000000000000000000000000000000000000000000000600052601260045260246000fd5b7f4e487b7100000000000000000000000000000000000000000000000000000000600052602260045260246000fd5b7f4e487b7100000000000000000000000000000000000000000000000000000000600052604160045260246000fd5b6000601f19601f8301169050919050565b613e7081613c38565b8114613e7b57600080fd5b50565b613e8781613c4a565b8114613e9257600080fd5b50565b613e9e81613c56565b8114613ea957600080fd5b50565b613eb581613ca2565b8114613ec057600080fd5b5056fe416e204e465420772f20494420257320686173206265656e206d696e74656420746f2025734142434445464748494a4b4c4d4e4f505152535455565758595a6162636465666768696a6b6c6d6e6f707172737475767778797a303132333435363738392b2fa2646970667358221220a306af88420f67ab8651da75e26987d17a2605894ed098ecc4f0ff5746bdb4fc64736f6c63430008000033",
  "linkReferences": {},
  "deployedLinkReferences": {}
}